:020000040000FA
:1000000001288316031386018312031386018316C6
:10001000031387018312031387012C2036208312D8
:1000200003138700831203130616061723200613F3
:1000300008008312031387008312031306120617A6
:10004000232006130800FF30A000FF30A100A10B01
:100050002728A00B25280800023019200C30192071
:10006000383019200800C030192008004E300F2009
:1000700049300F204C300F2041300F2059300F20D5
:1000800020300F2041300F204C300F2054300F20F3
:1000900055300F2047300F20332031300F203230C1
:0800A0000F2033300F2008008F
:00000001FF
